:100000000004001003010000D5000000D70000002C
:1000100000000000000000000000000051F9FFEFA8
:10002000000000000000000000000000D9000000F7
:100030000000000000000000DB000000DD00000008
:10004000DF000000DF00000000000000DF00000013
:10005000DF000000DF0000000000000000000000E2
:10006000DF000000DF000000DF000000DF00000014
:10007000DF000000DF00000000000000DF000000E3
:100080000000000000000000000000000000000070
:100090000000000000000000000000000000000060
:1000A000DF000000DF000000DF000000DF000000D4
:1000B000DF000000DF000000DF000000DF000000C4
:1000C000E404000000000010000000000000001028
:1000D00000000000FEE7FEE7FEE7FEE7FEE7FEE7C2
:1000E000002310B5934203D21C585C500433F9E747
:1000F00010BD00238B4203D200221A500433F9E7CB
:10010000704710B50C4C0D4B9C4206D220686168BC
:10011000A268FFF7E5FF0C34F5E7094B9C4205D2D6
:1001200020686168FFF7E5FF0834F6E700F070F932
:1001300000F08EF9FEE7C046C0000000CC000000D1
:10014000D4000000E0204021134A400013580B4324
:1001500013508020114BC000D860D8628020D36932
:1001600040041B021B0A0343FF20D361136A83432D
:10017000FA38034313620A4B5A688A435A605A6832
:1001800011431D2259600121064B5A6105325A6202
:100190001A680A431A60704700C0004000400440DB
:1001A0000080044000000540054B5A68D207FBD58B
:1001B0005A680E231340181A43425841C0B2704780
:1001C00000000540F8B50126154C0640A06202204B
:1001D0000D1C171C2062002E00D10018FFF7E4FF51
:1001E000002801D100201AE0EF19BD4212D0002EE4
:1001F00002D0A36A2B7001E02B78A36201230220B6
:100200002362002E00D10018FFF7CEFF0135002831
:10021000EBD1E7E7042300202362FFF7C5FFF8BD19
:1002200000000540031C10B50020DC0702D4181C98
:10023000FFF7C8FF10BD031C10B50020DC0702D576
:10024000181CFFF7BFFF10BD0421F8B5164A174C64
:10025000136801261B0C1B040B431360231C08208E
:1002600094331E606268124D824362606368FF22AD
:1002700003436360022329602B62231CF0331A605E
:100280001868296A1F680B4B80195843E1238919A4
:100290009B02594300F0E3F8FF43F4343818206020
:1002A0002B6833432B60F8BD00C000400080044041
:1002B00000400640B0710B00024B9A685207FBD514
:1002C000D861704700400640034B9A68D207FBD5BF
:1002D0005869C0B27047C04600400640F0B50025DE
:1002E000484A4949D36F85B00B4303ACD367FFF746
:1002F00029FFFFF7A9FF25706570A570FFF7E4FFE0
:100300000F23021C9A43D2B2802A10D180380328CE
:10031000F4D83E4B00F0DDF8020406081D2204E08C
:10032000062202E0022200E000225A61E6E7702283
:100330000240302A28D00BD8102A1CD0202A1FD0E7
:10034000002A39D102012B40151C1D43EDB233E0C8
:10035000502A21D005D8402A2ED1627801011340BD
:100360001FE0602A21D0702A26D1011CA2781940F2
:100370009A43131C1CE0021C9D431A4015431BE0CA
:1003800022780101134004E0011C227819409A43AD
:10039000131C0B4323700FE0011C627819409A4331
:1003A000131C0B436370022607E0A278010113407F
:1003B0000B43A370032600E0012603069ED501230C
:1003C0002B400193281C211C321C002B02D0FFF76C
:1003D00032FF01E0FFF726FF071C01207840404272
:1003E000C0B2FFF769FF002F88D0019B002B85D09A
:1003F0000027E05D0137FFF75FFFFBB2B342F8D3A0
:100400007CE7C04604800440204004000000054012
:100410000C490D48CA6F0D4B0243CA6700221A648B
:1004200001325A640121586C084A0842FAD000206F
:10043000106751670122596F1142FBD0034B9A6735
:100440007047C046048004408000040000800440DF
:1004500008B5FFF743FF08BD03000B4321D4002973
:1004600031D00122D207030901E0090112099942A2
:10047000FBD9430801E0490052089942FBD900E04A
:100480004908401A07D35241FAD301461046704733
:1004900049084018F7D29218FAD34018014610467E
:1004A0007047CB0F00D04942021000D54042534064
:1004B00008B5FFF7D4FF0CBC521000D34042002A0D
:1004C00000D549421847F446002000F001F8604783
:1004D00070478C4671460139095C49008E4461467B
:0404E0007047FFFF63
:0400000300000103F5
:00000001FF
